{
  "contractName": "MintFestiveNFT",
  "abi": [
    {
      "inputs": [],
      "payable": false,
      "stateMutability": "nonpayable",
      "type": "constructor"
    },
    {
      "constant": true,
      "inputs": [],
      "name": "INITIAL_SUPPLY",
      "outputs": [
        {
          "internalType": "uint256",
          "name": "",
          "type": "uint256"
        }
      ],
      "payable": false,
      "stateMutability": "view",
      "type": "function"
    },
    {
      "constant": true,
      "inputs": [],
      "name": "decimals",
      "outputs": [
        {
          "internalType": "uint8",
          "name": "",
          "type": "uint8"
        }
      ],
      "payable": false,
      "stateMutability": "view",
      "type": "function"
    },
    {
      "constant": true,
      "inputs": [],
      "name": "name",
      "outputs": [
        {
          "internalType": "string",
          "name": "",
          "type": "string"
        }
      ],
      "payable": false,
      "stateMutability": "view",
      "type": "function"
    },
    {
      "constant": true,
      "inputs": [],
      "name": "symbol",
      "outputs": [
        {
          "internalType": "string",
          "name": "",
          "type": "string"
        }
      ],
      "payable": false,
      "stateMutability": "view",
      "type": "function"
    }
  ],
  "bytecode": "0x60806040526040518060400160405280600981526020017f5465737420436f696e00000000000000000000000000000000000000000000008152506000908051906020019061004f92919061012d565b506040518060400160405280600481526020017f54455354000000000000000000000000000000000000000000000000000000008152506001908051906020019061009b92919061012d565b506006600260006101000a81548160ff021916908360ff160217905550600260009054906101000a900460ff1660ff16600a0a610bb8026003553480156100e157600080fd5b50600354600460003373ffffffffffffffffffffffffffffffffffffffff1673ffffffffffffffffffffffffffffffffffffffff168152602001908152602001600020819055506101d2565b828054600181600116156101000203166002900490600052602060002090601f016020900481019282601f1061016e57805160ff191683800117855561019c565b8280016001018555821561019c579182015b8281111561019b578251825591602001919060010190610180565b5b5090506101a991906101ad565b5090565b6101cf91905b808211156101cb5760008160009055506001016101b3565b5090565b90565b610323806101e16000396000f3fe608060405234801561001057600080fd5b506004361061004c5760003560e01c806306fdde03146100515780632ff2e9dc146100d4578063313ce567146100f257806395d89b4114610116575b600080fd5b610059610199565b6040518080602001828103825283818151815260200191508051906020019080838360005b8381101561009957808201518184015260208101905061007e565b50505050905090810190601f1680156100c65780820380516001836020036101000a031916815260200191505b509250505060405180910390f35b6100dc610237565b6040518082815260200191505060405180910390f35b6100fa61023d565b604051808260ff1660ff16815260200191505060405180910390f35b61011e610250565b6040518080602001828103825283818151815260200191508051906020019080838360005b8381101561015e578082015181840152602081019050610143565b50505050905090810190601f16801561018b5780820380516001836020036101000a031916815260200191505b509250505060405180910390f35b60008054600181600116156101000203166002900480601f01602080910402602001604051908101604052809291908181526020018280546001816001161561010002031660029004801561022f5780601f106102045761010080835404028352916020019161022f565b820191906000526020600020905b81548152906001019060200180831161021257829003601f168201915b505050505081565b60035481565b600260009054906101000a900460ff1681565b60018054600181600116156101000203166002900480601f0160208091040260200160405190810160405280929190818152602001828054600181600116156101000203166002900480156102e65780601f106102bb576101008083540402835291602001916102e6565b820191906000526020600020905b8154815290600101906020018083116102c957829003601f168201915b50505050508156fea265627a7a72315820ad802db8aa03275b8d09ad4d1a0ca72901ed4fb09987b46e67218005a0ac6dc864736f6c63430005100032",
  "source": "pragma solidity 0.5.16;\n\n//import './ERC721Token';\n\ncontract MintFestiveNFT {\n\n\n  string  public name = \"Test Coin\";\n  string  public symbol = \"TEST\";\n  uint8   public decimals = 6;\n  uint256 public INITIAL_SUPPLY = 3000 * (10 ** uint256(decimals)); //need to check\n\n  mapping (address => uint256) balances;\n  mapping (address => mapping (address => uint256)) allowed;\n  \n  constructor() public {\n\n  //  totalSupply = INITIAL_SUPPLY;\n      balances[msg.sender] = INITIAL_SUPPLY;\n\n    }   \n\n  \n\n/*\n\nfunction _mint(address _to, uint256 _tokenId) internal {\n      require(_to != address(0));\n      addTokenTo(_to, _tokenId);\n      emit Transfer(address(0), _to, _tokenId);\n    }\n\nfunction transfer(address _to, uint256 _value) public returns (bool success) {\n        require(balances[msg.sender] >= _value && balances[_to] + _value > balances[_to]);\n        require(_to != 0x0);\n        balances[msg.sender] -= _value;\n        balances[_to] += _value;\n        emit Transfer(msg.sender, _to, _value);\n        return true;\n  }\n\nfunction transferFrom(address _from, address _to, uint256 _value) public returns (bool success) {\n        require(balances[_from] >= _value && allowed[_from][msg.sender] >= _value);\n        balances[_to] += _value;\n        balances[_from] -= _value;\n        allowed[_from][msg.sender] -= _value;\n        emit Transfer(_from, _to, _value);\n        return true;\n  }\n  */\n\n\n}",
  "sourcePath": "/Users/conduent/test/SettleMintFestiveNFT/contracts/MintFestiveNFT.sol",
  "compiler": {
    "name": "solc",
    "version": "0.5.16+commit.9c3226ce.Emscripten.clang"
  },
  "schemaVersion": "3.3.1",
  "updatedAt": "2021-04-13T17:16:59.254Z",
  "devdoc": {
    "methods": {}
  },
  "userdoc": {
    "methods": {}
  }
}